{
  "_format": "hh-sol-artifact-1",
  "contractName": "MultiSwapToken",
  "sourceName": "contracts/SwapMultiHop.sol",
  "abi": [
    {
      "inputs": [],
      "name": "DAI",
      "outputs": [
        {
          "internalType": "address",
          "name": "",
          "type": "address"
        }
      ],
      "stateMutability": "view",
      "type": "function"
    },
    {
      "inputs": [],
      "name": "USDC",
      "outputs": [
        {
          "internalType": "address",
          "name": "",
          "type": "address"
        }
      ],
      "stateMutability": "view",
      "type": "function"
    },
    {
      "inputs": [],
      "name": "WETH9",
      "outputs": [
        {
          "internalType": "address",
          "name": "",
          "type": "address"
        }
      ],
      "stateMutability": "view",
      "type": "function"
    },
    {
      "inputs": [],
      "name": "poolFee",
      "outputs": [
        {
          "internalType": "uint24",
          "name": "",
          "type": "uint24"
        }
      ],
      "stateMutability": "view",
      "type": "function"
    },
    {
      "inputs": [
        {
          "internalType": "uint256",
          "name": "amountIn",
          "type": "uint256"
        }
      ],
      "name": "swapExactInputMultihop",
      "outputs": [
        {
          "internalType": "uint256",
          "name": "amountOut",
          "type": "uint256"
        }
      ],
      "stateMutability": "nonpayable",
      "type": "function"
    },
    {
      "inputs": [
        {
          "internalType": "uint256",
          "name": "amountOut",
          "type": "uint256"
        },
        {
          "internalType": "uint256",
          "name": "amountInMaximum",
          "type": "uint256"
        }
      ],
      "name": "swapExactOutputMultihop",
      "outputs": [
        {
          "internalType": "uint256",
          "name": "amountIn",
          "type": "uint256"
        }
      ],
      "stateMutability": "nonpayable",
      "type": "function"
    },
    {
      "inputs": [],
      "name": "swapRouter",
      "outputs": [
        {
          "internalType": "contract ISwapRouter",
          "name": "",
          "type": "address"
        }
      ],
      "stateMutability": "view",
      "type": "function"
    }
  ],
  "bytecode": "0x608060405234801561001057600080fd5b50610f97806100206000396000f3fe608060405234801561001057600080fd5b506004361061007d5760003560e01c806389a302711161005b57806389a30271146100ee578063c31c9c071461010c578063e0bab4c41461012a578063edd83557146101485761007d565b8063089fe6aa146100825780633b85cf6a146100a05780634aa4a4fc146100d0575b600080fd5b61008a610178565b604051610097919061083d565b60405180910390f35b6100ba60048036038101906100b59190610893565b61017e565b6040516100c791906108e2565b60405180910390f35b6100d861037c565b6040516100e5919061093e565b60405180910390f35b6100f6610394565b604051610103919061093e565b60405180910390f35b6101146103ac565b60405161012191906109b8565b60405180910390f35b6101326103c4565b60405161013f919061093e565b60405180910390f35b610162600480360381019061015d91906109d3565b6103dc565b60405161016f91906108e2565b60405180910390f35b610bb881565b60006101a0736b175474e89094c44da98b954eedeac495271d0f333085610572565b6101d3736b175474e89094c44da98b954eedeac495271d0f73e592427a0aece92de3edee1f18e0157c05861564846106ca565b60006040518060a0016040528073c02aaa39b223fe8d0a0e5c4f27ead9083c756cc2610bb873a0b86991c6218b36c1d19d4a2e9eb0ce3606eb48610bb8736b175474e89094c44da98b954eedeac495271d0f604051602001610239959493929190610a7e565b60405160208183030381529060405281526020013373ffffffffffffffffffffffffffffffffffffffff16815260200142815260200185815260200184815250905073e592427a0aece92de3edee1f18e0157c0586156473ffffffffffffffffffffffffffffffffffffffff1663f28c0498826040518263ffffffff1660e01b81526004016102c89190610c01565b6020604051808303816000875af11580156102e7573d6000803e3d6000fd5b505050506040513d601f19601f8201168201806040525081019061030b9190610c38565b91508282101561037557610349736b175474e89094c44da98b954eedeac495271d0f73e592427a0aece92de3edee1f18e0157c0586156460006106ca565b610374736b175474e89094c44da98b954eedeac495271d0f3033858761036f9190610c94565b610572565b5b5092915050565b73c02aaa39b223fe8d0a0e5c4f27ead9083c756cc281565b73a0b86991c6218b36c1d19d4a2e9eb0ce3606eb4881565b73e592427a0aece92de3edee1f18e0157c0586156481565b736b175474e89094c44da98b954eedeac495271d0f81565b60006103fe736b175474e89094c44da98b954eedeac495271d0f333085610572565b610431736b175474e89094c44da98b954eedeac495271d0f73e592427a0aece92de3edee1f18e0157c05861564846106ca565b60006040518060a00160405280736b175474e89094c44da98b954eedeac495271d0f610bb873a0b86991c6218b36c1d19d4a2e9eb0ce3606eb48610bb873c02aaa39b223fe8d0a0e5c4f27ead9083c756cc2604051602001610497959493929190610a7e565b60405160208183030381529060405281526020013373ffffffffffffffffffffffffffffffffffffffff1681526020014281526020018481526020016000815250905073e592427a0aece92de3edee1f18e0157c0586156473ffffffffffffffffffffffffffffffffffffffff1663c04b8d59826040518263ffffffff1660e01b81526004016105279190610d3e565b6020604051808303816000875af1158015610546573d6000803e3d6000fd5b505050506040513d601f19601f8201168201806040525081019061056a9190610c38565b915050919050565b6000808573ffffffffffffffffffffffffffffffffffffffff166323b872dd60e01b8686866040516024016105a993929190610d60565b604051602081830303815290604052907bffffffffffffffffffffffffffffffffffffffffffffffffffffffff19166020820180517bffffffffffffffffffffffffffffffffffffffffffffffffffffffff83818316178352505050506040516106139190610dd3565b6000604051808303816000865af19150503d8060008114610650576040519150601f19603f3d011682016040523d82523d6000602084013e610655565b606091505b509150915081801561068357506000815114806106825750808060200190518101906106819190610e22565b5b5b6106c2576040517f08c379a00000000000000000000000000000000000000000000000000000000081526004016106b990610eac565b60405180910390fd5b505050505050565b6000808473ffffffffffffffffffffffffffffffffffffffff1663095ea7b360e01b85856040516024016106ff929190610ecc565b604051602081830303815290604052907bffffffffffffffffffffffffffffffffffffffffffffffffffffffff19166020820180517bffffffffffffffffffffffffffffffffffffffffffffffffffffffff83818316178352505050506040516107699190610dd3565b6000604051808303816000865af19150503d80600081146107a6576040519150601f19603f3d011682016040523d82523d6000602084013e6107ab565b606091505b50915091508180156107d957506000815114806107d85750808060200190518101906107d79190610e22565b5b5b610818576040517f08c379a000000000000000000000000000000000000000000000000000000000815260040161080f90610f41565b60405180910390fd5b5050505050565b600062ffffff82169050919050565b6108378161081f565b82525050565b6000602082019050610852600083018461082e565b92915050565b600080fd5b6000819050919050565b6108708161085d565b811461087b57600080fd5b50565b60008135905061088d81610867565b92915050565b600080604083850312156108aa576108a9610858565b5b60006108b88582860161087e565b92505060206108c98582860161087e565b9150509250929050565b6108dc8161085d565b82525050565b60006020820190506108f760008301846108d3565b92915050565b600073ffffffffffffffffffffffffffffffffffffffff82169050919050565b6000610928826108fd565b9050919050565b6109388161091d565b82525050565b6000602082019050610953600083018461092f565b92915050565b6000819050919050565b600061097e610979610974846108fd565b610959565b6108fd565b9050919050565b600061099082610963565b9050919050565b60006109a282610985565b9050919050565b6109b281610997565b82525050565b60006020820190506109cd60008301846109a9565b92915050565b6000602082840312156109e9576109e8610858565b5b60006109f78482850161087e565b91505092915050565b60008160601b9050919050565b6000610a1882610a00565b9050919050565b6000610a2a82610a0d565b9050919050565b610a42610a3d8261091d565b610a1f565b82525050565b60008160e81b9050919050565b6000610a6082610a48565b9050919050565b610a78610a738261081f565b610a55565b82525050565b6000610a8a8288610a31565b601482019150610a9a8287610a67565b600382019150610aaa8286610a31565b601482019150610aba8285610a67565b600382019150610aca8284610a31565b6014820191508190509695505050505050565b600081519050919050565b600082825260208201905092915050565b60005b83811015610b17578082015181840152602081019050610afc565b60008484015250505050565b6000601f19601f8301169050919050565b6000610b3f82610add565b610b498185610ae8565b9350610b59818560208601610af9565b610b6281610b23565b840191505092915050565b610b768161091d565b82525050565b610b858161085d565b82525050565b600060a0830160008301518482036000860152610ba88282610b34565b9150506020830151610bbd6020860182610b6d565b506040830151610bd06040860182610b7c565b506060830151610be36060860182610b7c565b506080830151610bf66080860182610b7c565b508091505092915050565b60006020820190508181036000830152610c1b8184610b8b565b905092915050565b600081519050610c3281610867565b92915050565b600060208284031215610c4e57610c4d610858565b5b6000610c5c84828501610c23565b91505092915050565b7f4e487b7100000000000000000000000000000000000000000000000000000000600052601160045260246000fd5b6000610c9f8261085d565b9150610caa8361085d565b9250828203905081811115610cc257610cc1610c65565b5b92915050565b600060a0830160008301518482036000860152610ce58282610b34565b9150506020830151610cfa6020860182610b6d565b506040830151610d0d6040860182610b7c565b506060830151610d206060860182610b7c565b506080830151610d336080860182610b7c565b508091505092915050565b60006020820190508181036000830152610d588184610cc8565b905092915050565b6000606082019050610d75600083018661092f565b610d82602083018561092f565b610d8f60408301846108d3565b949350505050565b600081905092915050565b6000610dad82610add565b610db78185610d97565b9350610dc7818560208601610af9565b80840191505092915050565b6000610ddf8284610da2565b915081905092915050565b60008115159050919050565b610dff81610dea565b8114610e0a57600080fd5b50565b600081519050610e1c81610df6565b92915050565b600060208284031215610e3857610e37610858565b5b6000610e4684828501610e0d565b91505092915050565b600082825260208201905092915050565b7f5354460000000000000000000000000000000000000000000000000000000000600082015250565b6000610e96600383610e4f565b9150610ea182610e60565b602082019050919050565b60006020820190508181036000830152610ec581610e89565b9050919050565b6000604082019050610ee1600083018561092f565b610eee60208301846108d3565b9392505050565b7f5341000000000000000000000000000000000000000000000000000000000000600082015250565b6000610f2b600283610e4f565b9150610f3682610ef5565b602082019050919050565b60006020820190508181036000830152610f5a81610f1e565b905091905056fea26469706673582212206eb80ea5d850320da14d99b2ebfd8a3b15e5ed298bc381cd4ad2f7614ef4a24764736f6c63430008140033",
  "linkReferences": {},
  "deployedLinkReferences": {}
}