{
  "_format": "hh-sol-artifact-1",
  "contractName": "SingleSwapToken",
  "sourceName": "contracts/SwapToken.sol",
  "abi": [
    {
      "inputs": [],
      "name": "DAI",
      "outputs": [
        {
          "internalType": "address",
          "name": "",
          "type": "address"
        }
      ],
      "stateMutability": "view",
      "type": "function"
    },
    {
      "inputs": [],
      "name": "USDC",
      "outputs": [
        {
          "internalType": "address",
          "name": "",
          "type": "address"
        }
      ],
      "stateMutability": "view",
      "type": "function"
    },
    {
      "inputs": [],
      "name": "WETH9",
      "outputs": [
        {
          "internalType": "address",
          "name": "",
          "type": "address"
        }
      ],
      "stateMutability": "view",
      "type": "function"
    },
    {
      "inputs": [],
      "name": "poolFee",
      "outputs": [
        {
          "internalType": "uint24",
          "name": "",
          "type": "uint24"
        }
      ],
      "stateMutability": "view",
      "type": "function"
    },
    {
      "inputs": [
        {
          "internalType": "uint256",
          "name": "amountIn",
          "type": "uint256"
        },
        {
          "internalType": "address",
          "name": "tokenInn",
          "type": "address"
        },
        {
          "internalType": "address",
          "name": "tokenOutt",
          "type": "address"
        }
      ],
      "name": "swapExactInputSingle",
      "outputs": [
        {
          "internalType": "uint256",
          "name": "amountOut",
          "type": "uint256"
        }
      ],
      "stateMutability": "nonpayable",
      "type": "function"
    },
    {
      "inputs": [
        {
          "internalType": "uint256",
          "name": "amountOut",
          "type": "uint256"
        },
        {
          "internalType": "uint256",
          "name": "amountInMaximum",
          "type": "uint256"
        }
      ],
      "name": "swapExactOutputSingle",
      "outputs": [
        {
          "internalType": "uint256",
          "name": "amountIn",
          "type": "uint256"
        }
      ],
      "stateMutability": "nonpayable",
      "type": "function"
    },
    {
      "inputs": [],
      "name": "swapRouter",
      "outputs": [
        {
          "internalType": "contract ISwapRouter",
          "name": "",
          "type": "address"
        }
      ],
      "stateMutability": "view",
      "type": "function"
    }
  ],
  "bytecode": "0x608060405234801561001057600080fd5b506110c9806100206000396000f3fe608060405234801561001057600080fd5b506004361061007d5760003560e01c806389a302711161005b57806389a30271146100ee578063c31c9c071461010c578063c4b69a181461012a578063e0bab4c41461015a5761007d565b8063089fe6aa146100825780634aa4a4fc146100a05780634ce4dca5146100be575b600080fd5b61008a610178565b604051610097919061097f565b60405180910390f35b6100a861017e565b6040516100b591906109db565b60405180910390f35b6100d860048036038101906100d39190610a5d565b610196565b6040516100e59190610abf565b60405180910390f35b6100f66102fc565b60405161010391906109db565b60405180910390f35b610114610314565b6040516101219190610b39565b60405180910390f35b610144600480360381019061013f9190610b54565b61032c565b6040516101519190610abf565b60405180910390f35b610162610547565b60405161016f91906109db565b60405180910390f35b610bb881565b73c02aaa39b223fe8d0a0e5c4f27ead9083c756cc281565b60006101a48333308761055f565b6101c38373e592427a0aece92de3edee1f18e0157c05861564866106b7565b60006040518061010001604052808573ffffffffffffffffffffffffffffffffffffffff1681526020018473ffffffffffffffffffffffffffffffffffffffff168152602001610bb862ffffff1681526020013373ffffffffffffffffffffffffffffffffffffffff16815260200142815260200186815260200160008152602001600073ffffffffffffffffffffffffffffffffffffffff16815250905073e592427a0aece92de3edee1f18e0157c0586156473ffffffffffffffffffffffffffffffffffffffff1663414bf389826040518263ffffffff1660e01b81526004016102af9190610c72565b6020604051808303816000875af11580156102ce573d6000803e3d6000fd5b505050506040513d601f19601f820116820180604052508101906102f29190610ca3565b9150509392505050565b73a0b86991c6218b36c1d19d4a2e9eb0ce3606eb4881565b73e592427a0aece92de3edee1f18e0157c0586156481565b600061034e736b175474e89094c44da98b954eedeac495271d0f33308561055f565b610381736b175474e89094c44da98b954eedeac495271d0f73e592427a0aece92de3edee1f18e0157c05861564846106b7565b6000604051806101000160405280736b175474e89094c44da98b954eedeac495271d0f73ffffffffffffffffffffffffffffffffffffffff16815260200173c02aaa39b223fe8d0a0e5c4f27ead9083c756cc273ffffffffffffffffffffffffffffffffffffffff168152602001610bb862ffffff1681526020013373ffffffffffffffffffffffffffffffffffffffff168152602001428152602001858152602001848152602001600073ffffffffffffffffffffffffffffffffffffffff16815250905073e592427a0aece92de3edee1f18e0157c0586156473ffffffffffffffffffffffffffffffffffffffff1663db3e2198826040518263ffffffff1660e01b81526004016104949190610d72565b6020604051808303816000875af11580156104b3573d6000803e3d6000fd5b505050506040513d601f19601f820116820180604052508101906104d79190610ca3565b91508282101561054057610515736b175474e89094c44da98b954eedeac495271d0f73e592427a0aece92de3edee1f18e0157c0586156460006106b7565b61053f736b175474e89094c44da98b954eedeac495271d0f33848661053a9190610dbd565b61080c565b5b5092915050565b736b175474e89094c44da98b954eedeac495271d0f81565b6000808573ffffffffffffffffffffffffffffffffffffffff166323b872dd60e01b86868660405160240161059693929190610df1565b604051602081830303815290604052907bffffffffffffffffffffffffffffffffffffffffffffffffffffffff19166020820180517bffffffffffffffffffffffffffffffffffffffffffffffffffffffff83818316178352505050506040516106009190610e99565b6000604051808303816000865af19150503d806000811461063d576040519150601f19603f3d011682016040523d82523d6000602084013e610642565b606091505b5091509150818015610670575060008151148061066f57508080602001905181019061066e9190610ee8565b5b5b6106af576040517f08c379a00000000000000000000000000000000000000000000000000000000081526004016106a690610f72565b60405180910390fd5b505050505050565b6000808473ffffffffffffffffffffffffffffffffffffffff1663095ea7b360e01b85856040516024016106ec929190610f92565b604051602081830303815290604052907bffffffffffffffffffffffffffffffffffffffffffffffffffffffff19166020820180517bffffffffffffffffffffffffffffffffffffffffffffffffffffffff83818316178352505050506040516107569190610e99565b6000604051808303816000865af19150503d8060008114610793576040519150601f19603f3d011682016040523d82523d6000602084013e610798565b606091505b50915091508180156107c657506000815114806107c55750808060200190518101906107c49190610ee8565b5b5b610805576040517f08c379a00000000000000000000000000000000000000000000000000000000081526004016107fc90611007565b60405180910390fd5b5050505050565b6000808473ffffffffffffffffffffffffffffffffffffffff1663a9059cbb60e01b8585604051602401610841929190610f92565b604051602081830303815290604052907bffffffffffffffffffffffffffffffffffffffffffffffffffffffff19166020820180517bffffffffffffffffffffffffffffffffffffffffffffffffffffffff83818316178352505050506040516108ab9190610e99565b6000604051808303816000865af19150503d80600081146108e8576040519150601f19603f3d011682016040523d82523d6000602084013e6108ed565b606091505b509150915081801561091b575060008151148061091a5750808060200190518101906109199190610ee8565b5b5b61095a576040517f08c379a000000000000000000000000000000000000000000000000000000000815260040161095190611073565b60405180910390fd5b5050505050565b600062ffffff82169050919050565b61097981610961565b82525050565b60006020820190506109946000830184610970565b92915050565b600073ffffffffffffffffffffffffffffffffffffffff82169050919050565b60006109c58261099a565b9050919050565b6109d5816109ba565b82525050565b60006020820190506109f060008301846109cc565b92915050565b600080fd5b6000819050919050565b610a0e816109fb565b8114610a1957600080fd5b50565b600081359050610a2b81610a05565b92915050565b610a3a816109ba565b8114610a4557600080fd5b50565b600081359050610a5781610a31565b92915050565b600080600060608486031215610a7657610a756109f6565b5b6000610a8486828701610a1c565b9350506020610a9586828701610a48565b9250506040610aa686828701610a48565b9150509250925092565b610ab9816109fb565b82525050565b6000602082019050610ad46000830184610ab0565b92915050565b6000819050919050565b6000610aff610afa610af58461099a565b610ada565b61099a565b9050919050565b6000610b1182610ae4565b9050919050565b6000610b2382610b06565b9050919050565b610b3381610b18565b82525050565b6000602082019050610b4e6000830184610b2a565b92915050565b60008060408385031215610b6b57610b6a6109f6565b5b6000610b7985828601610a1c565b9250506020610b8a85828601610a1c565b9150509250929050565b610b9d816109ba565b82525050565b610bac81610961565b82525050565b610bbb816109fb565b82525050565b610bca8161099a565b82525050565b61010082016000820151610be76000850182610b94565b506020820151610bfa6020850182610b94565b506040820151610c0d6040850182610ba3565b506060820151610c206060850182610b94565b506080820151610c336080850182610bb2565b5060a0820151610c4660a0850182610bb2565b5060c0820151610c5960c0850182610bb2565b5060e0820151610c6c60e0850182610bc1565b50505050565b600061010082019050610c886000830184610bd0565b92915050565b600081519050610c9d81610a05565b92915050565b600060208284031215610cb957610cb86109f6565b5b6000610cc784828501610c8e565b91505092915050565b61010082016000820151610ce76000850182610b94565b506020820151610cfa6020850182610b94565b506040820151610d0d6040850182610ba3565b506060820151610d206060850182610b94565b506080820151610d336080850182610bb2565b5060a0820151610d4660a0850182610bb2565b5060c0820151610d5960c0850182610bb2565b5060e0820151610d6c60e0850182610bc1565b50505050565b600061010082019050610d886000830184610cd0565b92915050565b7f4e487b7100000000000000000000000000000000000000000000000000000000600052601160045260246000fd5b6000610dc8826109fb565b9150610dd3836109fb565b9250828203905081811115610deb57610dea610d8e565b5b92915050565b6000606082019050610e0660008301866109cc565b610e1360208301856109cc565b610e206040830184610ab0565b949350505050565b600081519050919050565b600081905092915050565b60005b83811015610e5c578082015181840152602081019050610e41565b60008484015250505050565b6000610e7382610e28565b610e7d8185610e33565b9350610e8d818560208601610e3e565b80840191505092915050565b6000610ea58284610e68565b915081905092915050565b60008115159050919050565b610ec581610eb0565b8114610ed057600080fd5b50565b600081519050610ee281610ebc565b92915050565b600060208284031215610efe57610efd6109f6565b5b6000610f0c84828501610ed3565b91505092915050565b600082825260208201905092915050565b7f5354460000000000000000000000000000000000000000000000000000000000600082015250565b6000610f5c600383610f15565b9150610f6782610f26565b602082019050919050565b60006020820190508181036000830152610f8b81610f4f565b9050919050565b6000604082019050610fa760008301856109cc565b610fb46020830184610ab0565b9392505050565b7f5341000000000000000000000000000000000000000000000000000000000000600082015250565b6000610ff1600283610f15565b9150610ffc82610fbb565b602082019050919050565b6000602082019050818103600083015261102081610fe4565b9050919050565b7f5354000000000000000000000000000000000000000000000000000000000000600082015250565b600061105d600283610f15565b915061106882611027565b602082019050919050565b6000602082019050818103600083015261108c81611050565b905091905056fea2646970667358221220e225b43ea92522bdce9da43563e219908600d8bd1b374ef445c5f5e2192dccb664736f6c63430008140033",
  "linkReferences": {},
  "deployedLinkReferences": {}
}